{
  "contractName": "Add",
  "abi": [
    {
      "inputs": [
        {
          "internalType": "uint256",
          "name": "_num1",
          "type": "uint256"
        },
        {
          "internalType": "uint256",
          "name": "_num2",
          "type": "uint256"
        }
      ],
      "name": "Sum",
      "outputs": [],
      "stateMutability": "nonpayable",
      "type": "function"
    },
    {
      "inputs": [],
      "name": "getSum",
      "outputs": [
        {
          "internalType": "uint256",
          "name": "",
          "type": "uint256"
        }
      ],
      "stateMutability": "view",
      "type": "function",
      "constant": true
    }
  ],
  "bytecode": "0x608060405234801561001057600080fd5b5060d58061001f6000396000f3fe6080604052348015600f57600080fd5b506004361060325760003560e01c806317ef4e4b146037578063569c5f6d14606c575b600080fd5b606a60048036036040811015604b57600080fd5b8101908080359060200190929190803590602001909291905050506088565b005b60726095565b6040518082815260200191505060405180910390f35b8082016002819055505050565b600060025490509056fea264697066735822122000d2f82e4ba4192dd64e6ea18d12dc03c8f4776fc3eb718392e8f383f1443e0164736f6c63430006030033",
  "source": "// SPDX-License-Identifier: MIT\npragma solidity >=0.6.3;\n\ncontract Add {\n    uint num1;\n\n    uint num2;\n\n    uint num3;\n\n    function Sum(uint _num1, uint _num2) public {\n        num3 = _num1 + _num2;\n    }\n\n    function getSum() public view returns(uint) {\n        return num3;\n    }\n}\n",
  "sourcePath": "/home/kfiseneck/Sites/world-of-bop/contracts/Add.sol",
  "compiler": {
    "name": "solc",
    "version": "0.6.3+commit.8dda9521.Emscripten.clang"
  },
  "schemaVersion": "3.3.4",
  "updatedAt": "2021-10-20T20:05:19.096Z",
  "networkType": "ethereum",
  "devdoc": {
    "methods": {}
  },
  "userdoc": {
    "methods": {}
  }
}